:0400000007EF00F016
:0A0008007D8209ED08F00EEF0CF008
:10100000003132333435363738392A3023256900F8
:0110100000DF
:101012000600F2A80FEF08F011EF08F01AEF08F03F
:10102200F2A216EF08F018EF08F01AEF08F078ECC9
:101032000DF0F0A61FEF08F021EF08F02AEF08F0FC
:10104200F0A026EF08F028EF08F02AEF08F076EC7F
:101052000DF0F0A82FEF08F031EF08F03AEF08F0AA
:10106200F0A236EF08F038EF08F03AEF08F074EC2F
:101072000DF0F2A63FEF08F041EF08F05CEF08F048
:10108200F2A046EF08F048EF08F05CEF08F081A804
:101092004DEF08F04FEF08F05CEF08F06804D8A4B9
:1010A20055EF08F057EF08F05CEF08F0000E686E9D
:1010B200000E3AEC0DF0F2A661EF08F063EF08F0D3
:1010C2007EEF08F0F2A068EF08F06AEF08F07EEF1A
:1010D20008F081B86FEF08F071EF08F07EEF08F0CA
:1010E2006850D8A477EF08F079EF08F07EEF08F0A7
:1010F200010E686E010E3AEC0DF0F2A683EF08F0D5
:1011020085EF08F0A0EF08F0F2A08AEF08F08CEF6C
:1011120008F0A0EF08F081AA91EF08F093EF08F031
:10112200A0EF08F06704D8A499EF08F09BEF08F04D
:10113200A0EF08F0000E676E000E2DEC0DF0F2A687
:10114200A5EF08F0A7EF08F0C2EF08F0F2A0ACEFAD
:1011520008F0AEEF08F0C2EF08F081BAB3EF08F082
:10116200B5EF08F0C2EF08F06750D8A4BBEF08F063
:10117200BDEF08F0C2EF08F0010E676E010E2DEC14
:101182000DF0F2A6C7EF08F0C9EF08F0E4EF08F09F
:10119200F2A0CEEF08F0D0EF08F0E4EF08F081AC57
:1011A200D5EF08F0D7EF08F0E4EF08F06604D8A412
:1011B200DDEF08F0DFEF08F0E4EF08F0000E666EF6
:1011C200000E20EC0DF0F2A6E9EF08F0EBEF08F0CC
:1011D20006EF09F0F2A0F0EF08F0F2EF08F006EFE8
:1011E20009F081BCF7EF08F0F9EF08F006EF09F01B
:1011F2006650D8A4FFEF08F001EF09F006EF09F0FE
:10120200010E666E010E20EC0DF0F2A60BEF09F056
:101212000DEF09F028EF09F0F2A012EF09F014EF38
:1012220009F028EF09F081AE19EF09F01BEF09F080
:1012320028EF09F06504D8A421EF09F023EF09F0A3
:1012420028EF09F0000E656E000E13EC0DF0F2A609
:101252002DEF09F02FEF09F04AEF09F0F2A034EF79
:1012620009F036EF09F04AEF09F081BE3BEF09F0D1
:101272003DEF09F04AEF09F06550D8A443EF09F0B9
:1012820045EF09F04AEF09F0010E656E010E13EC0D
:101292000DF09DAC4FEF09F051EF09F05AEF09F054
:1012A2009EAC56EF09F058EF09F05AEF09F084ECC2
:1012B2000DF0F2AA5FEF09F061EF09F06AEF09F0B1
:1012C200F2A466EF09F068EF09F06AEF09F068EC42
:1012D2000DF09DA06FEF09F071EF09F07AEF09F0C0
:1012E2009EA076EF09F078EF09F07AEF09F062EC50
:1012F2000DF09DA27FEF09F081EF09F08AEF09F06E
:101302009EA286EF09F088EF09F08AEF09F06EECF1
:101312000DF0A0A28FEF09F091EF09F09AEF09F01A
:10132200A1A296EF09F098EF09F09AEF09F05CECB0
:101332000DF09DA49FEF09F0A1EF09F0AAEF09F0CB
:101342009EA4A6EF09F0A8EF09F0AAEF09F082EC3B
:101352000DF0A0A0AFEF09F0B1EF09F0BAEF09F07C
:10136200A1A0B6EF09F0B8EF09F0BAEF09F080ECEE
:101372000DF09DA8BFEF09F0C1EF09F0CAEF09F027
:101382009EA8C6EF09F0C8EF09F0CAEF09F07EEC9B
:101392000DF09DAACFEF09F0D1EF09F0DAEF09F0D5
:1013A2009EAAD6EF09F0D8EF09F0DAEF09F086EC41
:1013B2000DF09DA6DFEF09F0E1EF09F0EAEF09F089
:1013C2009EA6E6EF09F0E8EF09F0EAEF09F07AEC01
:1013D2000DF0A0A6EFEF09F0F1EF09F0FAEF09F036
:1013E200A1A6F6EF09F0F8EF09F0FAEF09F07CECAC
:1013F2000DF09DA6FFEF09F001EF0AF00AEF0AF0E7
:101402009EA606EF0AF008EF0AF00AEF0AF072EC65
:101412000DF07D921100010E706E6A50D8B414EF77
:101422000AF016EF0AF026EF0AF06A50D96EDA6A6D
:10143200DF30E832E832070B6B6E070E6B6424EF85
:101442000AF026EF0AF07DEF0AF0000E706E9DEFB3
:101452000AF06A50D96EDA6ADF30E832E832070BF6
:101462006B6E010E6C6E6B2A39EF0AF0D8906C36F7
:101472006B2E37EF0AF06C50FF0A6D6E6A50D96E10
:10148200DA6ADF50070B020DF350540FD96EDA6A95
:10149200DECF6EF0DDCF6FF06EC0D9FF6FC0DAFF26
:1014A2006D50DF169DEF0AF06A50D96EDA6ADF30AE
:1014B200E832E832070B6B6E010E6C6E6B2A64EF3A
:1014C2000AF0D8906C366B2E62EF0AF06A50D96E31
:1014D200DA6ADF50070B020DF350540FD96EDA6A45
:1014E200DECF6DF0DDCF6EF06DC0D9FF6EC0DAFFDA
:1014F2006C50DF129DEF0AF06A50D96EDA6ADFBCD7
:1015020085EF0AF088EF0AF0010E89EF0AF0000E6B
:101512006B6E6C6A6C50000AD8B492EF0AF026EF38
:101522000AF06B50000AD8B42AEF0AF0010AD8B4C4
:1015320055EF0AF026EF0AF070501200010E716E9C
:101542006A50D8B4A7EF0AF0A9EF0AF0B9EF0AF08F
:101552006A50D96EDA6ADF30E832E832070B6C6E15
:10156200070E6C64B7EF0AF0B9EF0AF010EF0BF058
:10157200000E716E25EF0BF06A50D96EDA6ADF3019
:10158200E832E832070B6C6E010E6D6E6C2ACCEFFE
:101592000AF0D8906D366C2ECAEF0AF06A50D96EF6
:1015A200DA6ADF50070B020DF3504A0FD96EDA6A7E
:1015B200DECF6EF0DDCF6FF06EC0D9FF6FC0DAFF05
:1015C2006D50DF1225EF0BF06A50D96EDA6ADF3008
:1015D200E832E832070B6C6E010E6D6E6C2AF4EF86
:1015E2000AF0D8906D366C2EF2EF0AF06D50FF0AB9
:1015F2006E6E6A50D96EDA6ADF50070B020DF35035
:101602004A0FD96EDA6ADECF6FF0DDCF70F06FC0AD
:10161200D9FF70C0DAFF6E50DF1625EF0BF06B506A
:101622006C6E6D6A6D50000AD8B41AEF0BF0B9EF08
:101632000AF06C50000AD8B4E5EF0AF0010AD8B4F7
:10164200BDEF0AF0B9EF0AF071501200000E7A6E87
:101652007850D8A42FEF0BF031EF0BF035EF0BF0F1
:10166200000E7B6EA0EF0BF078C072F040EC0CF035
:101672007B6E7828726E40EC0CF07B6E000E7A6EF8
:1016820078507A24020F726E40EC0CF07A2A030E24
:101692007A644EEF0BF050EF0BF041EF0BF0270E98
:1016A200796EF50EE82EFED7792EFCD7000078C0B1
:1016B20075F0380E766E9DEC0CF00D0E796EFC0E08
:1016C200E82EFED7792EFCD778C075F0380E766EEC
:1016D2009DEC0CF0420EE82EFED700D078C075F0DB
:1016E200380E766E9DEC0CF078C075F0010E766EB9
:1016F2009DEC0CF078C075F0020E766E9DEC0CF04D
:1017020078C075F0060E766E9DEC0CF078C075F020
:10171200280E766E9DEC0CF078C075F00C0E766E8D
:101722009DEC0CF078C075F0280E766E9DEC0CF0F6
:1017320078C075F0800E766E9DEC0CF07B6E7B505F
:1017420012007250D8A4A8EF0BF0AAEF0BF0AEEF84
:101752000BF0000E746ED7EF0BF07250020F6A6E30
:101762007350010B6B6E9FEC0AF0746E7250030F94
:101772006A6ED8907330010B6B6E9FEC0AF0746E38
:101782007250040F6A6E7340E8423F0B010B6B6E9E
:101792009FEC0AF0746E7250050F6A6E7338E84659
:1017A2001F0B010B6B6E9FEC0AF0746E74501200EB
:1017B200000E776E000E786E7550D8A4E3EF0BF032
:1017C200E5EF0BF0E9EF0BF0000E766E0CEF0CF08C
:1017D200000E776E75507724726E40EC0CF0772A0B
:1017E200030E7764F7EF0BF0F9EF0BF0EBEF0BF072
:1017F200000E786E75507824040F6A6E0CEC0AF0B5
:10180200782A020E786408EF0CF00AEF0CF0FBEF76
:101812000BF0010E766E765012008E0EF66E1A0ED8
:10182200F76E000EF86E00EE80F010EE17F0090071
:10183200F5CFEEFFE550E150FAE1060EF66E1A0E14
:10184200F76E000EF86E00EE4AF010EE1FF009007F
:10185200F5CFEEFFE550E150FAE100019C6B9B6B86
:101862009A6B996B986B976B00EE01F0490EEE6ADA
:10187200E806FDE17D907D920001EBEF0CF07250E5
:10188200D8B446EF0CF048EF0CF058EF0CF0725061
:10189200D96EDA6ADF30E832E832070B736E070E70
:1018A200736456EF0CF058EF0CF05CEF0CF0000E86
:1018B200746E6DEF0CF072C06AF00CEC0AF0746E8C
:1018C20072C06AF07250D96EDA6A000EDFBE010E83
:1018D2006B6E9FEC0AF0746E745012007550D8A4AF
:1018E20075EF0CF077EF0CF07BEF0CF0000E776EDB
:1018F2009BEF0CF075C06AF0010E6B6E9FEC0AF064
:10190200776E75C072F076380F0B736EA2EC0BF027
:10191200776E75C072F0CBEC0CF0776E75C072F01A
:1019220076C073F0A2EC0BF0776E75C072F0CBEC60
:101932000CF0776E775012007550D8A4A3EF0CF01C
:10194200A5EF0CF0A9EF0CF0000E776EC9EF0CF0CA
:1019520075C06AF0000E6B6E9FEC0AF0776E75C070
:1019620072F076380F0B736EA2EC0BF0776E75C0C7
:1019720072F0CBEC0CF0776E75C072F076C073F03B
:10198200A2EC0BF0776E75C072F0CBEC0CF0776EB8
:10199200775012007250D8A4D1EF0CF0D3EF0CF0B4
:1019A200D7EF0CF0000E736EE9EF0CF072286A6E3E
:1019B200010E6B6E9FEC0AF0060EE82EFED700D0E9
:1019C20072286A6E000E6B6E9FEC0AF0010E736E47
:1019D2007350120053EC0DF0910E756E660E766E1A
:1019E2006FEC0CF07C6E020E00019E6F040E9D6F78
:1019F200BA0EE82EFED79D2FFCD79E2FFAD70000F5
:101A020007EF00F0890F8A0F8B0F8C0F8D0F920F4B
:101A1200930F940F950F960F685A622A1A622A0141
:031A2200010101BE
:101A2600696EF2906950D8A41BEF0DF01DEF0DF012
:101A36001FEF0DF01FEF0DF01200696EF290695066
:101A4600D8A428EF0DF02AEF0DF02CEF0DF02CEFB7
:101A56000DF01200696EF2906950D8A435EF0DF0C2
:101A660037EF0DF039EF0DF039EF0DF01200696E1A
:101A7600F2906950D8A442EF0DF044EF0DF046EF16
:101A86000DF046EF0DF01200800F810F820F830FCD
:0F1A9600840F32030B135B636B028A121A222A2E
:101AA6008A0E756ED9EC0BF0910E786E27EC0BF062
:101AB6001200A1920650B36E05C0B2FF12009E90AE
:101AC6000E50CF6E0DC0CEFF1200F2941250D76E9C
:101AD60011C0D6FF12009E9242C0CCFF12009E9605
:101AE6001200F0921200F0901200F29212009E96EE
:101AF6001200A19612009D981200A19012009E94C9
:081B060012009E9C1200120067
:020000040030CA
:0E000000FF02091EFF8181FF0FC00FE00F40BD
:00000001FF
